{
  "contractName": "DoubleLandICO",
  "abi": [
    {
      "constant": true,
      "inputs": [],
      "name": "activatedSalesTotalCount",
      "outputs": [
        {
          "name": "",
          "type": "uint256"
        }
      ],
      "payable": false,
      "stateMutability": "view",
      "type": "function"
    },
    {
      "constant": true,
      "inputs": [],
      "name": "maxActivatedSalesTotalCount",
      "outputs": [
        {
          "name": "",
          "type": "uint256"
        }
      ],
      "payable": false,
      "stateMutability": "view",
      "type": "function"
    },
    {
      "constant": true,
      "inputs": [],
      "name": "owner",
      "outputs": [
        {
          "name": "",
          "type": "address"
        }
      ],
      "payable": false,
      "stateMutability": "view",
      "type": "function"
    },
    {
      "constant": true,
      "inputs": [],
      "name": "softCap",
      "outputs": [
        {
          "name": "",
          "type": "uint256"
        }
      ],
      "payable": false,
      "stateMutability": "view",
      "type": "function"
    },
    {
      "constant": true,
      "inputs": [],
      "name": "multisigWallet",
      "outputs": [
        {
          "name": "",
          "type": "address"
        }
      ],
      "payable": false,
      "stateMutability": "view",
      "type": "function"
    },
    {
      "constant": true,
      "inputs": [
        {
          "name": "",
          "type": "uint256"
        }
      ],
      "name": "sales",
      "outputs": [
        {
          "name": "",
          "type": "address"
        }
      ],
      "payable": false,
      "stateMutability": "view",
      "type": "function"
    },
    {
      "constant": true,
      "inputs": [],
      "name": "isDeployed",
      "outputs": [
        {
          "name": "",
          "type": "bool"
        }
      ],
      "payable": false,
      "stateMutability": "view",
      "type": "function"
    },
    {
      "constant": false,
      "inputs": [
        {
          "name": "newOwner",
          "type": "address"
        }
      ],
      "name": "transferOwnership",
      "outputs": [],
      "payable": false,
      "stateMutability": "nonpayable",
      "type": "function"
    },
    {
      "constant": true,
      "inputs": [],
      "name": "hardCap",
      "outputs": [
        {
          "name": "",
          "type": "uint256"
        }
      ],
      "payable": false,
      "stateMutability": "view",
      "type": "function"
    },
    {
      "constant": true,
      "inputs": [],
      "name": "token",
      "outputs": [
        {
          "name": "",
          "type": "address"
        }
      ],
      "payable": false,
      "stateMutability": "view",
      "type": "function"
    },
    {
      "anonymous": false,
      "inputs": [
        {
          "indexed": false,
          "name": "a",
          "type": "address"
        }
      ],
      "name": "OwnerLog",
      "type": "event"
    },
    {
      "constant": false,
      "inputs": [
        {
          "name": "_bonusPreset",
          "type": "string"
        },
        {
          "name": "_startTime",
          "type": "uint256"
        },
        {
          "name": "_endTime",
          "type": "uint256"
        },
        {
          "name": "_tokensLimit",
          "type": "uint256"
        },
        {
          "name": "_minimalPrice",
          "type": "uint256"
        }
      ],
      "name": "createSale",
      "outputs": [],
      "payable": false,
      "stateMutability": "nonpayable",
      "type": "function"
    },
    {
      "constant": false,
      "inputs": [],
      "name": "activateLastSale",
      "outputs": [],
      "payable": false,
      "stateMutability": "nonpayable",
      "type": "function"
    },
    {
      "constant": false,
      "inputs": [],
      "name": "removeLastSaleOnlyNotActivated",
      "outputs": [],
      "payable": false,
      "stateMutability": "nonpayable",
      "type": "function"
    },
    {
      "constant": false,
      "inputs": [],
      "name": "closeAllSales",
      "outputs": [],
      "payable": false,
      "stateMutability": "nonpayable",
      "type": "function"
    },
    {
      "constant": false,
      "inputs": [
        {
          "name": "_multisigWallet",
          "type": "address"
        }
      ],
      "name": "setGlobalMultisigWallet",
      "outputs": [],
      "payable": false,
      "stateMutability": "nonpayable",
      "type": "function"
    },
    {
      "constant": true,
      "inputs": [],
      "name": "getTotalCollected",
      "outputs": [
        {
          "name": "",
          "type": "uint256"
        }
      ],
      "payable": false,
      "stateMutability": "view",
      "type": "function"
    },
    {
      "constant": true,
      "inputs": [],
      "name": "getCurrentSale",
      "outputs": [
        {
          "name": "",
          "type": "address"
        }
      ],
      "payable": false,
      "stateMutability": "view",
      "type": "function"
    },
    {
      "constant": false,
      "inputs": [],
      "name": "deploy",
      "outputs": [],
      "payable": false,
      "stateMutability": "nonpayable",
      "type": "function"
    }
  ],
  "bytecode": "0x608060405260006005556000600760146101000a81548160ff021916908315150217905550336000806101000a81548173ffffffffffffffffffffffffffffffffffffffff021916908373ffffffffffffffffffffffffffffffffffffffff160217905550615fab806100736000396000f3006080604052600436106100fc576000357c0100000000000000000000000000000000000000000000000000000000900463ffffffff16806338a326e4146101015780635c64bb721461012c5780636a294a8014610183578063775c300c146101ae57806378990684146101c557806382b1fb0d146101dc5780638da5cb5b1461021f578063906a26e0146102765780639075becf146102a1578063b5f522f7146102f8578063c52046de14610365578063cd8df8ec14610394578063e67fcd10146103ab578063ef81eb571461043c578063f2fde38b14610453578063fb86a40414610496578063fbe5d87e146104c1578063fc0c546a146104ec575b600080fd5b34801561010d57600080fd5b50610116610543565b6040518082815260200191505060405180910390f35b34801561013857600080fd5b50610141610549565b604051808273ffffffffffffffffffffffffffffffffffffffff1673ffffffffffffffffffffffffffffffffffffffff16815260200191505060405180910390f35b34801561018f57600080fd5b50610198610611565b6040518082815260200191505060405180910390f35b3480156101ba57600080fd5b506101c3610617565b005b3480156101d157600080fd5b506101da6110b2565b005b3480156101e857600080fd5b5061021d600480360381019080803573ffffffffffffffffffffffffffffffffffffffff1690602001909291905050506111e6565b005b34801561022b57600080fd5b50610234611494565b604051808273ffffffffffffffffffffffffffffffffffffffff1673ffffffffffffffffffffffffffffffffffffffff16815260200191505060405180910390f35b34801561028257600080fd5b5061028b6114b9565b6040518082815260200191505060405180910390f35b3480156102ad57600080fd5b506102b66114bf565b604051808273ffffffffffffffffffffffffffffffffffffffff1673ffffffffffffffffffffffffffffffffffffffff16815260200191505060405180910390f35b34801561030457600080fd5b50610323600480360381019080803590602001909291905050506114e5565b604051808273ffffffffffffffffffffffffffffffffffffffff1673ffffffffffffffffffffffffffffffffffffffff16815260200191505060405180910390f35b34801561037157600080fd5b5061037a611523565b604051808215151515815260200191505060405180910390f35b3480156103a057600080fd5b506103a9611536565b005b3480156103b757600080fd5b5061043a600480360381019080803590602001908201803590602001908080601f016020809104026020016040519081016040528093929190818152602001838380828437820191505050505050919291929080359060200190929190803590602001909291908035906020019092919080359060200190929190505050611876565b005b34801561044857600080fd5b50610451611de7565b005b34801561045f57600080fd5b50610494600480360381019080803573ffffffffffffffffffffffffffffffffffffffff169060200190929190505050611f74565b005b3480156104a257600080fd5b506104ab61204e565b6040518082815260200191505060405180910390f35b3480156104cd57600080fd5b506104d6612054565b6040518082815260200191505060405180910390f35b3480156104f857600080fd5b5061050161215f565b604051808273ffffffffffffffffffffffffffffffffffffffff1673ffffffffffffffffffffffffffffffffffffffff16815260200191505060405180910390f35b60055481565b6000600160009054906101000a900473ffffffffffffffffffffffffffffffffffffffff1673ffffffffffffffffffffffffffffffffffffffff1663b1d6a2f06040518163ffffffff167c0100000000000000000000000000000000000000000000000000000000028152600401602060405180830381600087803b1580156105d157600080fd5b505af11580156105e5573d6000803e3d6000fd5b505050506040513d60208110156105fb57600080fd5b8101908080519060200190929190505050905090565b60065481565b6000809054906101000a900473ffffffffffffffffffffffffffffffffffffffff1673ffffffffffffffffffffffffffffffffffffffff163373ffffffffffffffffffffffffffffffffffffffff1614151561067257600080fd5b600760149054906101000a900460ff1615151561068e57600080fd5b6001600760146101000a81548160ff0219169083151502179055506901b1ae4d6e2ef5000000600381905550690a968163f0a57b40000060048190555060056006819055506106f0739264669c5071944eaf5898b13f049aa667a2f94b6111e6565b6106f8612185565b604051809103906000f080158015610714573d6000803e3d6000fd5b50600160006101000a81548173ffffffffffffffffffffffffffffffffffffffff021916908373ffffffffffffffffffffffffffffffffffffffff160217905550600160009054906101000a900473ffffffffffffffffffffffffffffffffffffffff1673ffffffffffffffffffffffffffffffffffffffff1663f7ea7a3d6b033b2e3c9fd0803ce80000006040518263ffffffff167c010000000000000000000000000000000000000000000000000000000002815260040180828152602001915050600060405180830381600087803b1580156107f257600080fd5b505af1158015610806573d6000803e3d6000fd5b50505050600160009054906101000a900473ffffffffffffffffffffffffffffffffffffffff1673ffffffffffffffffffffffffffffffffffffffff1663ada199dd600f6040518263ffffffff167c010000000000000000000000000000000000000000000000000000000002815260040180828152602001915050600060405180830381600087803b15801561089c57600080fd5b505af11580156108b0573d6000803e3d6000fd5b50505050600160009054906101000a900473ffffffffffffffffffffffffffffffffffffffff1673ffffffffffffffffffffffffffffffffffffffff166359169d0660016040518263ffffffff167c010000000000000000000000000000000000000000000000000000000002815260040180828152602001915050600060405180830381600087803b15801561094657600080fd5b505af115801561095a573d6000803e3d6000fd5b50505050600160009054906101000a900473ffffffffffffffffffffffffffffffffffffffff1673ffffffffffffffffffffffffffffffffffffffff166344d15446600a6040518263ffffffff167c010000000000000000000000000000000000000000000000000000000002815260040180828152602001915050600060405180830381600087803b1580156109f057600080fd5b505af1158015610a04573d6000803e3d6000fd5b50505050600160009054906101000a900473ffffffffffffffffffffffffffffffffffffffff1673ffffffffffffffffffffffffffffffffffffffff1663ca1c889565a67001fe70006040518263ffffffff167c010000000000000000000000000000000000000000000000000000000002815260040180828152602001915050600060405180830381600087803b158015610a9f57600080fd5b505af1158015610ab3573d6000803e3d6000fd5b50505050600160009054906101000a900473ffffffffffffffffffffffffffffffffffffffff1673ffffffffffffffffffffffffffffffffffffffff1663e930f06f731ab521e26d76826ce3130dd7e31c64870016c2686040518263ffffffff167c0100000000000000000000000000000000000000000000000000000000028152600401808273ffffffffffffffffffffffffffffffffffffffff1673ffffffffffffffffffffffffffffffffffffffff168152602001915050600060405180830381600087803b158015610b8857600080fd5b505af1158015610b9c573d6000803e3d6000fd5b50505050600160009054906101000a900473ffffffffffffffffffffffffffffffffffffffff1673ffffffffffffffffffffffffffffffffffffffff16638a9d383973d1aac7097a9a79ec60940af9c6cccd78597534bc6040518263ffffffff167c0100000000000000000000000000000000000000000000000000000000028152600401808273ffffffffffffffffffffffffffffffffffffffff1673ffffffffffffffffffffffffffffffffffffffff168152602001915050600060405180830381600087803b158015610c7157600080fd5b505af1158015610c85573d6000803e3d6000fd5b50505050600160009054906101000a900473ffffffffffffffffffffffffffffffffffffffff1673ffffffffffffffffffffffffffffffffffffffff1663119cc32873f5eebe2be833458367200389ad567cc1a450cd646040518263ffffffff167c0100000000000000000000000000000000000000000000000000000000028152600401808273ffffffffffffffffffffffffffffffffffffffff1673ffffffffffffffffffffffffffffffffffffffff168152602001915050600060405180830381600087803b158015610d5a57600080fd5b505af1158015610d6e573d6000803e3d6000fd5b50505050600160009054906101000a900473ffffffffffffffffffffffffffffffffffffffff1673ffffffffffffffffffffffffffffffffffffffff1663e567756f73ebb8776f710a5df053c291fe65228687f07faacb6040518263ffffffff167c0100000000000000000000000000000000000000000000000000000000028152600401808273ffffffffffffffffffffffffffffffffffffffff1673ffffffffffffffffffffffffffffffffffffffff168152602001915050600060405180830381600087803b158015610e4357600080fd5b505af1158015610e57573d6000803e3d6000fd5b50505050600160009054906101000a900473ffffffffffffffffffffffffffffffffffffffff1673ffffffffffffffffffffffffffffffffffffffff1663f2fde38b6000809054906101000a900473ffffffffffffffffffffffffffffffffffffffff166040518263ffffffff167c0100000000000000000000000000000000000000000000000000000000028152600401808273ffffffffffffffffffffffffffffffffffffffff1673ffffffffffffffffffffffffffffffffffffffff168152602001915050600060405180830381600087803b158015610f3957600080fd5b505af1158015610f4d573d6000803e3d6000fd5b50505050600160009054906101000a900473ffffffffffffffffffffffffffffffffffffffff1673ffffffffffffffffffffffffffffffffffffffff1663e1c7392a6040518163ffffffff167c0100000000000000000000000000000000000000000000000000000000028152600401600060405180830381600087803b158015610fd757600080fd5b505af1158015610feb573d6000803e3d6000fd5b5050505061104c6040805190810160405280600b81526020017f7072697661746573616c65000000000000000000000000000000000000000000815250635af9f8d0635b0f10d06a422ca8b0a00a4250000000670de0b6b3a7640000611876565b611054611536565b6110b06040805190810160405280600781526020017f70726573616c6500000000000000000000000000000000000000000000000000815250635b22d750635b369dd06a3e09de2596099e2b000000666a94d74f430000611876565b565b60008060009054906101000a900473ffffffffffffffffffffffffffffffffffffffff1673ffffffffffffffffffffffffffffffffffffffff163373ffffffffffffffffffffffffffffffffffffffff1614151561110f57600080fd5b600090505b6002805490508110156111e35760028181548110151561113057fe5b9060005260206000200160009054906101000a900473ffffffffffffffffffffffffffffffffffffffff1673ffffffffffffffffffffffffffffffffffffffff166343d726d66040518163ffffffff167c0100000000000000000000000000000000000000000000000000000000028152600401600060405180830381600087803b1580156111be57600080fd5b505af11580156111d2573d6000803e3d6000fd5b505050508080600101915050611114565b50565b60008060009054906101000a900473ffffffffffffffffffffffffffffffffffffffff1673ffffffffffffffffffffffffffffffffffffffff163373ffffffffffffffffffffffffffffffffffffffff1614151561124357600080fd5b81600760006101000a81548173ffffffffffffffffffffffffffffffffffffffff021916908373ffffffffffffffffffffffffffffffffffffffff160217905550600090505b600280549050811015611490576002818154811015156112a557fe5b9060005260206000200160009054906101000a900473ffffffffffffffffffffffffffffffffffffffff1673ffffffffffffffffffffffffffffffffffffffff1663597e1fb56040518163ffffffff167c0100000000000000000000000000000000000000000000000000000000028152600401602060405180830381600087803b15801561133357600080fd5b505af1158015611347573d6000803e3d6000fd5b505050506040513d602081101561135d57600080fd5b810190808051906020019092919050505015156114835760028181548110151561138357fe5b9060005260206000200160009054906101000a900473ffffffffffffffffffffffffffffffffffffffff1673ffffffffffffffffffffffffffffffffffffffff166364913477600760009054906101000a900473ffffffffffffffffffffffffffffffffffffffff166040518263ffffffff167c0100000000000000000000000000000000000000000000000000000000028152600401808273ffffffffffffffffffffffffffffffffffffffff1673ffffffffffffffffffffffffffffffffffffffff168152602001915050600060405180830381600087803b15801561146a57600080fd5b505af115801561147e573d6000803e3d6000fd5b505050505b8080600101915050611289565b5050565b6000809054906101000a900473ffffffffffffffffffffffffffffffffffffffff1681565b60035481565b600760009054906101000a900473ffffffffffffffffffffffffffffffffffffffff1681565b6002818154811015156114f457fe5b906000526020600020016000915054906101000a900473ffffffffffffffffffffffffffffffffffffffff1681565b600760149054906101000a900460ff1681565b6000809054906101000a900473ffffffffffffffffffffffffffffffffffffffff1673ffffffffffffffffffffffffffffffffffffffff163373ffffffffffffffffffffffffffffffffffffffff1614151561159157600080fd5b6006546005541015156115a357600080fd5b60026001600280549050038154811015156115ba57fe5b9060005260206000200160009054906101000a900473ffffffffffffffffffffffffffffffffffffffff1673ffffffffffffffffffffffffffffffffffffffff1663186601ca6040518163ffffffff167c0100000000000000000000000000000000000000000000000000000000028152600401602060405180830381600087803b15801561164857600080fd5b505af115801561165c573d6000803e3d6000fd5b505050506040513d602081101561167257600080fd5b810190808051906020019092919050505015151561168f57600080fd5b60056000815480929190600101919050555060026001600280549050038154811015156116b857fe5b9060005260206000200160009054906101000a900473ffffffffffffffffffffffffffffffffffffffff1673ffffffffffffffffffffffffffffffffffffffff16630f15f4c06040518163ffffffff167c0100000000000000000000000000000000000000000000000000000000028152600401600060405180830381600087803b15801561174657600080fd5b505af115801561175a573d6000803e3d6000fd5b50505050600160009054906101000a900473ffffffffffffffffffffffffffffffffffffffff1673ffffffffffffffffffffffffffffffffffffffff166314133a7c60026001600280549050038154811015156117b357fe5b9060005260206000200160009054906101000a900473ffffffffffffffffffffffffffffffffffffffff166040518263ffffffff167c0100000000000000000000000000000000000000000000000000000000028152600401808273ffffffffffffffffffffffffffffffffffffffff1673ffffffffffffffffffffffffffffffffffffffff168152602001915050600060405180830381600087803b15801561185c57600080fd5b505af1158015611870573d6000803e3d6000fd5b50505050565b60008060009054906101000a900473ffffffffffffffffffffffffffffffffffffffff1673ffffffffffffffffffffffffffffffffffffffff163373ffffffffffffffffffffffffffffffffffffffff161415156118d357600080fd5b6006546005541015156118e557600080fd5b6004546118f0612054565b1015156118fc57600080fd5b82600160009054906101000a900473ffffffffffffffffffffffffffffffffffffffff1673ffffffffffffffffffffffffffffffffffffffff166355b954ad6040518163ffffffff167c0100000000000000000000000000000000000000000000000000000000028152600401602060405180830381600087803b15801561198357600080fd5b505af1158015611997573d6000803e3d6000fd5b505050506040513d60208110156119ad57600080fd5b8101908080519060200190929190505050101515156119cb57600080fd5b60006002805490501480611abb575060026001600280549050038154811015156119f157fe5b9060005260206000200160009054906101000a900473ffffffffffffffffffffffffffffffffffffffff1673ffffffffffffffffffffffffffffffffffffffff1663186601ca6040518163ffffffff167c0100000000000000000000000000000000000000000000000000000000028152600401602060405180830381600087803b158015611a7f57600080fd5b505af1158015611a93573d6000803e3d6000fd5b505050506040513d6020811015611aa957600080fd5b81019080805190602001909291905050505b1515611ac657600080fd5b611ace612195565b604051809103906000f080158015611aea573d6000803e3d6000fd5b5090508073ffffffffffffffffffffffffffffffffffffffff166358c23bf08787878787600160009054906101000a900473ffffffffffffffffffffffffffffffffffffffff16600760009054906101000a900473ffffffffffffffffffffffffffffffffffffffff166040518863ffffffff167c010000000000000000000000000000000000000000000000000000000002815260040180806020018881526020018781526020018681526020018581526020018473ffffffffffffffffffffffffffffffffffffffff1673ffffffffffffffffffffffffffffffffffffffff1681526020018373ffffffffffffffffffffffffffffffffffffffff1673ffffffffffffffffffffffffffffffffffffffff168152602001828103825289818151815260200191508051906020019080838360005b83811015611c3b578082015181840152602081019050611c20565b50505050905090810190601f168015611c685780820380516001836020036101000a031916815260200191505b5098505050505050505050600060405180830381600087803b158015611c8d57600080fd5b505af1158015611ca1573d6000803e3d6000fd5b505050508073ffffffffffffffffffffffffffffffffffffffff1663f2fde38b6000809054906101000a900473ffffffffffffffffffffffffffffffffffffffff166040518263ffffffff167c0100000000000000000000000000000000000000000000000000000000028152600401808273ffffffffffffffffffffffffffffffffffffffff1673ffffffffffffffffffffffffffffffffffffffff168152602001915050600060405180830381600087803b158015611d6157600080fd5b505af1158015611d75573d6000803e3d6000fd5b5050505060028190806001815401808255809150509060018203906000526020600020016000909192909190916101000a81548173ffffffffffffffffffffffffffffffffffffffff021916908373ffffffffffffffffffffffffffffffffffffffff16021790555050505050505050565b6000809054906101000a900473ffffffffffffffffffffffffffffffffffffffff1673ffffffffffffffffffffffffffffffffffffffff163373ffffffffffffffffffffffffffffffffffffffff16141515611e4257600080fd5b6002600160028054905003815481101515611e5957fe5b9060005260206000200160009054906101000a900473ffffffffffffffffffffffffffffffffffffffff1673ffffffffffffffffffffffffffffffffffffffff1663186601ca6040518163ffffffff167c0100000000000000000000000000000000000000000000000000000000028152600401602060405180830381600087803b158015611ee757600080fd5b505af1158015611efb573d6000803e3d6000fd5b505050506040513d6020811015611f1157600080fd5b8101908080519060200190929190505050151515611f2e57600080fd5b6002600160028054905003815481101515611f4557fe5b9060005260206000200160006101000a81549073ffffffffffffffffffffffffffffffffffffffff0219169055565b6000809054906101000a900473ffffffffffffffffffffffffffffffffffffffff1673ffffffffffffffffffffffffffffffffffffffff163373ffffffffffffffffffffffffffffffffffffffff16141515611fcf57600080fd5b600073ffffffffffffffffffffffffffffffffffffffff168173ffffffffffffffffffffffffffffffffffffffff161415151561200b57600080fd5b806000806101000a81548173ffffffffffffffffffffffffffffffffffffffff021916908373ffffffffffffffffffffffffffffffffffffffff16021790555050565b60045481565b6000806000809150600090505b6002805490508110156121575760028181548110151561207d57fe5b9060005260206000200160009054906101000a900473ffffffffffffffffffffffffffffffffffffffff1673ffffffffffffffffffffffffffffffffffffffff166384bcefd46040518163ffffffff167c0100000000000000000000000000000000000000000000000000000000028152600401602060405180830381600087803b15801561210b57600080fd5b505af115801561211f573d6000803e3d6000fd5b505050506040513d602081101561213557600080fd5b8101908080519060200190929190505050820191508080600101915050612061565b819250505090565b600160009054906101000a900473ffffffffffffffffffffffffffffffffffffffff1681565b6040516124da806121a683390190565b6040516119008061468083390190560060806040526000600660006101000a81548160ff02191690831515021790555034801561002b57600080fd5b5033600360006101000a81548173ffffffffffffffffffffffffffffffffffffffff021916908373ffffffffffffffffffffffffffffffffffffffff16021790555033600460006101000a81548173ffffffffffffffffffffffffffffffffffffffff021916908373ffffffffffffffffffffffffffffffffffffffff16021790555061241d806100bd6000396000f3006080604052600436106101c2576000357c0100000000000000000000000000000000000000000000000000000000900463ffffffff16806306fdde03146101c7578063095ea7b314610257578063119cc328146102bc57806312407f98146102ff57806314133a7c1461035657806318160ddd146103995780631b9cbdfb146103c45780631bfaf155146103ef57806323b872dd14610446578063313ce567146104cb57806335c77e6f146105025780633fabf8c01461055957806344d154461461058457806355b954ad146105b157806359169d06146105dc57806370a08231146106095780638090114f1461066057806386d0b46d1461068b5780638a9d3839146106b65780638da5cb5b146106f95780638de932221461075057806395d89b411461079d5780639a3fdfd01461082d578063a51e62a114610858578063a9059cbb146108af578063ada199dd14610914578063b1d6a2f014610941578063b284fc2914610998578063ca1c8895146109c3578063dd62ed3e146109f0578063e1c7392a14610a67578063e567756f14610a7e578063e576052014610ac1578063e930f06f14610b18578063f2fde38b14610b5b578063f7ea7a3d14610b9e575b600080fd5b3480156101d357600080fd5b506101dc610bcb565b6040518080602001828103825283818151815260200191508051906020019080838360005b8381101561021c578082015181840152602081019050610201565b50505050905090810190601f1680156102495780820380516001836020036101000a031916815260200191505b509250505060405180910390f35b34801561026357600080fd5b506102a2600480360381019080803573ffffffffffffffffffffffffffffffffffffffff16906020019092919080359060200190929190505050610c04565b604051808215151515815260200191505060405180910390f35b3480156102c857600080fd5b506102fd600480360381019080803573ffffffffffffffffffffffffffffffffffffffff169060200190929190505050610d8b565b005b34801561030b57600080fd5b50610314610e47565b604051808273ffffffffffffffffffffffffffffffffffffffff1673ffffffffffffffffffffffffffffffffffffffff16815260200191505060405180910390f35b34801561036257600080fd5b50610397600480360381019080803573ffffffffffffffffffffffffffffffffffffffff169060200190929190505050610e6d565b005b3480156103a557600080fd5b506103ae610f65565b6040518082815260200191505060405180910390f35b3480156103d057600080fd5b506103d9610f6b565b6040518082815260200191505060405180910390f35b3480156103fb57600080fd5b50610404610f71565b604051808273ffffffffffffffffffffffffffffffffffffffff1673ffffffffffffffffffffffffffffffffffffffff16815260200191505060405180910390f35b34801561045257600080fd5b506104b1600480360381019080803573ffffffffffffffffffffffffffffffffffffffff169060200190929190803573ffffffffffffffffffffffffffffffffffffffff16906020019092919080359060200190929190505050610f97565b604051808215151515815260200191505060405180910390f35b3480156104d757600080fd5b506104e0611247565b604051808263ffffffff1663ffffffff16815260200191505060405180910390f35b34801561050e57600080fd5b5061051761124c565b604051808273ffffffffffffffffffffffffffffffffffffffff1673ffffffffffffffffffffffffffffffffffffffff16815260200191505060405180910390f35b34801561056557600080fd5b5061056e611272565b6040518082815260200191505060405180910390f35b34801561059057600080fd5b506105af60048036038101908080359060200190929190505050611278565b005b3480156105bd57600080fd5b506105c66112fa565b6040518082815260200191505060405180910390f35b3480156105e857600080fd5b5061060760048036038101908080359060200190929190505050611363565b005b34801561061557600080fd5b5061064a600480360381019080803573ffffffffffffffffffffffffffffffffffffffff1690602001909291905050506113e5565b6040518082815260200191505060405180910390f35b34801561066c57600080fd5b5061067561142e565b6040518082815260200191505060405180910390f35b34801561069757600080fd5b506106a0611433565b6040518082815260200191505060405180910390f35b3480156106c257600080fd5b506106f7600480360381019080803573ffffffffffffffffffffffffffffffffffffffff169060200190929190505050611439565b005b34801561070557600080fd5b5061070e6114f5565b604051808273ffffffffffffffffffffffffffffffffffffffff1673ffffffffffffffffffffffffffffffffffffffff16815260200191505060405180910390f35b34801561075c57600080fd5b5061079b600480360381019080803573ffffffffffffffffffffffffffffffffffffffff1690602001909291908035906020019092919050505061151b565b005b3480156107a957600080fd5b506107b261183b565b6040518080602001828103825283818151815260200191508051906020019080838360005b838110156107f25780820151818401526020810190506107d7565b50505050905090810190601f16801561081f5780820380516001836020036101000a031916815260200191505b509250505060405180910390f35b34801561083957600080fd5b50610842611874565b6040518082815260200191505060405180910390f35b34801561086457600080fd5b5061086d61187a565b604051808273ffffffffffffffffffffffffffffffffffffffff1673ffffffffffffffffffffffffffffffffffffffff16815260200191505060405180910390f35b3480156108bb57600080fd5b506108fa600480360381019080803573ffffffffffffffffffffffffffffffffffffffff169060200190929190803590602001909291905050506118a0565b604051808215151515815260200191505060405180910390f35b34801561092057600080fd5b5061093f60048036038101908080359060200190929190505050611a3b565b005b34801561094d57600080fd5b50610956611abd565b604051808273ffffffffffffffffffffffffffffffffffffffff1673ffffffffffffffffffffffffffffffffffffffff16815260200191505060405180910390f35b3480156109a457600080fd5b506109ad611ae3565b6040518082815260200191505060405180910390f35b3480156109cf57600080fd5b506109ee60048036038101908080359060200190929190505050611ae9565b005b3480156109fc57600080fd5b50610a51600480360381019080803573ffffffffffffffffffffffffffffffffffffffff169060200190929190803573ffffffffffffffffffffffffffffffffffffffff169060200190929190505050611ba7565b6040518082815260200191505060405180910390f35b348015610a7357600080fd5b50610a7c611c2e565b005b348015610a8a57600080fd5b50610abf600480360381019080803573ffffffffffffffffffffffffffffffffffffffff169060200190929190505050612070565b005b348015610acd57600080fd5b50610ad661212c565b604051808273ffffffffffffffffffffffffffffffffffffffff1673ffffffffffffffffffffffffffffffffffffffff16815260200191505060405180910390f35b348015610b2457600080fd5b50610b59600480360381019080803573ffffffffffffffffffffffffffffffffffffffff169060200190929190505050612152565b005b348015610b6757600080fd5b50610b9c600480360381019080803573ffffffffffffffffffffffffffffffffffffffff16906020019092919050505061220e565b005b348015610baa57600080fd5b50610bc9600480360381019080803590602001909291905050506122ea565b005b6040805190810160405280600f81526020017f446f75626c654c616e6420436f696e000000000000000000000000000000000081525081565b600080821480610c9057506000600260003373ffffffffffffffffffffffffffffffffffffffff1673ffffffffffffffffffffffffffffffffffffffff16815260200190815260200160002060008573ffffffffffffffffffffffffffffffffffffffff1673ffffffffffffffffffffffffffffffffffffffff16815260200190815260200160002054145b1515610c9b57600080fd5b81600260003373ffffffffffffffffffffffffffffffffffffffff1673ffffffffffffffffffffffffffffffffffffffff16815260200190815260200160002060008573ffffffffffffffffffffffffffffffffffffffff1673ffffffffffffffffffffffffffffffffffffffff168152602001908152602001600020819055508273ffffffffffffffffffffffffffffffffffffffff163373ffffffffffffffffffffffffffffffffffffffff167f8c5be1e5ebec7d5bd14f71427d1e84f3dd0314c0f7b2291e5b200ac8c7c3b925846040518082815260200191505060405180910390a36001905092915050565b600660009054906101000a900460ff16151515610da757600080fd5b600460009054906101000a900473ffffffffffffffffffffffffffffffffffffffff1673ffffffffffffffffffffffffffffffffffffffff163373ffffffffffffffffffffffffffffffffffffffff16141515610e0357600080fd5b80600d60006101000a81548173ffffffffffffffffffffffffffffffffffffffff021916908373ffffffffffffffffffffffffffffffffffffffff16021790555050565b600b60009054906101000a900473ffffffffffffffffffffffffffffffffffffffff1681565b600460009054906101000a900473ffffffffffffffffffffffffffffffffffffffff1673ffffffffffffffffffffffffffffffffffffffff163373ffffffffffffffffffffffffffffffffffffffff161480610f165750600360009054906101000a900473ffffffffffffffffffffffffffffffffffffffff1673ffffffffffffffffffffffffffffffffffffffff163373ffffffffffffffffffffffffffffffffffffffff16145b1515610f2157600080fd5b80600f60006101000a81548173ffffffffffffffffffffffffffffffffffffffff021916908373ffffffffffffffffffffffffffffffffffffffff16021790555050565b60005481565b60055481565b600d60009054906101000a900473ffffffffffffffffffffffffffffffffffffffff1681565b600080600260008673ffffffffffffffffffffffffffffffffffffffff1673ffffffffffffffffffffffffffffffffffffffff16815260200190815260200160002060003373ffffffffffffffffffffffffffffffffffffffff1673ffffffffffffffffffffffffffffffffffffffff16815260200190815260200160002054905061106b83600160008773ffffffffffffffffffffffffffffffffffffffff1673ffffffffffffffffffffffffffffffffffffffff1681526020019081526020016000205461236c90919063ffffffff16565b600160008673ffffffffffffffffffffffffffffffffffffffff1673ffffffffffffffffffffffffffffffffffffffff1681526020019081526020016000208190555061110083600160008873ffffffffffffffffffffffffffffffffffffffff1673ffffffffffffffffffffffffffffffffffffffff1681526020019081526020016000205461238a90919063ffffffff16565b600160008773ffffffffffffffffffffffffffffffffffffffff1673ffffffffffffffffffffffffffffffffffffffff16815260200190815260200160002081905550611156838261238a90919063ffffffff16565b600260008773ffffffffffffffffffffffffffffffffffffffff1673ffffffffffffffffffffffffffffffffffffffff16815260200190815260200160002060003373ffffffffffffffffffffffffffffffffffffffff1673ffffffffffffffffffffffffffffffffffffffff168152602001908152602001600020819055508373ffffffffffffffffffffffffffffffffffffffff168573ffffffffffffffffffffffffffffffffffffffff167fddf252ad1be2c89b69c2b068fc378daa952ba7f163c4a11628f55a4df523b3ef856040518082815260200191505060405180910390a360019150509392505050565b601281565b600460009054906101000a900473ffffffffffffffffffffffffffffffffffffffff1681565b600a5481565b600660009054906101000a900460ff1615151561129457600080fd5b600460009054906101000a900473ffffffffffffffffffffffffffffffffffffffff1673ffffffffffffffffffffffffffffffffffffffff163373ffffffffffffffffffffffffffffffffffffffff161415156112f057600080fd5b80600a8190555050565b600060016000600b60009054906101000a900473ffffffffffffffffffffffffffffffffffffffff1673ffffffffffffffffffffffffffffffffffffffff1673ffffffffffffffffffffffffffffffffffffffff16815260200190815260200160002054905090565b600660009054906101000a900460ff1615151561137f57600080fd5b600460009054906101000a900473ffffffffffffffffffffffffffffffffffffffff1673ffffffffffffffffffffffffffffffffffffffff163373ffffffffffffffffffffffffffffffffffffffff161415156113db57600080fd5b8060098190555050565b6000600160008373ffffffffffffffffffffffffffffffffffffffff1673ffffffffffffffffffffffffffffffffffffffff168152602001908152602001600020549050919050565b606481565b60085481565b600660009054906101000a900460ff1615151561145557600080fd5b600460009054906101000a900473ffffffffffffffffffffffffffffffffffffffff1673ffffffffffffffffffffffffffffffffffffffff163373ffffffffffffffffffffffffffffffffffffffff161415156114b157600080fd5b80600c60006101000a81548173ffffffffffffffffffffffffffffffffffffffff021916908373ffffffffffffffffffffffffffffffffffffffff16021790555050565b600360009054906101000a900473ffffffffffffffffffffffffffffffffffffffff1681565b600f60009054906101000a900473ffffffffffffffffffffffffffffffffffffffff1673ffffffffffffffffffffffffffffffffffffffff163373ffffffffffffffffffffffffffffffffffffffff1614806115c45750600360009054906101000a900473ffffffffffffffffffffffffffffffffffffffff1673ffffffffffffffffffffffffffffffffffffffff163373ffffffffffffffffffffffffffffffffffffffff16145b15156115cf57600080fd5b600073ffffffffffffffffffffffffffffffffffffffff168273ffffffffffffffffffffffffffffffffffffffff161415151561160b57600080fd5b60008111151561161a57600080fd5b6000611636826116286112fa565b61238a90919063ffffffff16565b11151561164257600080fd5b61169481600160008573ffffffffffffffffffffffffffffffffffffffff1673ffffffffffffffffffffffffffffffffffffffff1681526020019081526020016000205461236c90919063ffffffff16565b600160008473ffffffffffffffffffffffffffffffffffffffff1673ffffffffffffffffffffffffffffffffffffffff1681526020019081526020016000208190555061174b8160016000600b60009054906101000a900473ffffffffffffffffffffffffffffffffffffffff1673ffffffffffffffffffffffffffffffffffffffff1673ffffffffffffffffffffffffffffffffffffffff1681526020019081526020016000205461238a90919063ffffffff16565b60016000600b60009054906101000a900473ffffffffffffffffffffffffffffffffffffffff1673ffffffffffffffffffffffffffffffffffffffff1673ffffffffffffffffffffffffffffffffffffffff168152602001908152602001600020819055508173ffffffffffffffffffffffffffffffffffffffff16600b60009054906101000a900473ffffffffffffffffffffffffffffffffffffffff1673ffffffffffffffffffffffffffffffffffffffff167fddf252ad1be2c89b69c2b068fc378daa952ba7f163c4a11628f55a4df523b3ef836040518082815260200191505060405180910390a35050565b6040805190810160405280600281526020017f444300000000000000000000000000000000000000000000000000000000000081525081565b60095481565b600e60009054906101000a900473ffffffffffffffffffffffffffffffffffffffff1681565b60006118f482600160003373ffffffffffffffffffffffffffffffffffffffff1673ffffffffffffffffffffffffffffffffffffffff1681526020019081526020016000205461238a90919063ffffffff16565b600160003373ffffffffffffffffffffffffffffffffffffffff1673ffffffffffffffffffffffffffffffffffffffff1681526020019081526020016000208190555061198982600160008673ffffffffffffffffffffffffffffffffffffffff1673ffffffffffffffffffffffffffffffffffffffff1681526020019081526020016000205461236c90919063ffffffff16565b600160008573ffffffffffffffffffffffffffffffffffffffff1673ffffffffffffffffffffffffffffffffffffffff168152602001908152602001600020819055508273ffffffffffffffffffffffffffffffffffffffff163373ffffffffffffffffffffffffffffffffffffffff167fddf252ad1be2c89b69c2b068fc378daa952ba7f163c4a11628f55a4df523b3ef846040518082815260200191505060405180910390a36001905092915050565b600660009054906101000a900460ff16151515611a5757600080fd5b600460009054906101000a900473ffffffffffffffffffffffffffffffffffffffff1673ffffffffffffffffffffffffffffffffffffffff163373ffffffffffffffffffffffffffffffffffffffff16141515611ab357600080fd5b8060088190555050565b600f60009054906101000a900473ffffffffffffffffffffffffffffffffffffffff1681565b60075481565b600460009054906101000a900473ffffffffffffffffffffffffffffffffffffffff1673ffffffffffffffffffffffffffffffffffffffff163373ffffffffffffffffffffffffffffffffffffffff161480611b925750600360009054906101000a900473ffffffffffffffffffffffffffffffffffffffff1673ffffffffffffffffffffffffffffffffffffffff163373ffffffffffffffffffffffffffffffffffffffff16145b1515611b9d57600080fd5b8060058190555050565b6000600260008473ffffffffffffffffffffffffffffffffffffffff1673ffffffffffffffffffffffffffffffffffffffff16815260200190815260200160002060008373ffffffffffffffffffffffffffffffffffffffff1673ffffffffffffffffffffffffffffffffffffffff16815260200190815260200160002054905092915050565b600660009054906101000a900460ff16151515611c4a57600080fd5b600460009054906101000a900473ffffffffffffffffffffffffffffffffffffffff1673ffffffffffffffffffffffffffffffffffffffff163373ffffffffffffffffffffffffffffffffffffffff16141515611ca657600080fd5b60008054111515611cb657600080fd5b6000600854111515611cc757600080fd5b6000600954111515611cd857600080fd5b6000600a54111515611ce957600080fd5b600073ffffffffffffffffffffffffffffffffffffffff16600d60009054906101000a900473ffffffffffffffffffffffffffffffffffffffff1673ffffffffffffffffffffffffffffffffffffffff1614151515611d4757600080fd5b600073ffffffffffffffffffffffffffffffffffffffff16600c60009054906101000a900473ffffffffffffffffffffffffffffffffffffffff1673ffffffffffffffffffffffffffffffffffffffff1614151515611da557600080fd5b600073ffffffffffffffffffffffffffffffffffffffff16600e60009054906101000a900473ffffffffffffffffffffffffffffffffffffffff1673ffffffffffffffffffffffffffffffffffffffff1614151515611e0357600080fd5b6001600660006101000a81548160ff021916908315150217905550600a546009546008540101606403600781905550611e5c6064611e4e6007546000546123a390919063ffffffff16565b6123d690919063ffffffff16565b60016000600b60009054906101000a900473ffffffffffffffffffffffffffffffffffffffff1673ffffffffffffffffffffffffffffffffffffffff1673ffffffffffffffffffffffffffffffffffffffff16815260200190815260200160002081905550611eeb6064611edd6008546000546123a390919063ffffffff16565b6123d690919063ffffffff16565b60016000600d60009054906101000a900473ffffffffffffffffffffffffffffffffffffffff1673ffffffffffffffffffffffffffffffffffffffff1673ffffffffffffffffffffffffffffffffffffffff16815260200190815260200160002081905550611f7a6064611f6c6009546000546123a390919063ffffffff16565b6123d690919063ffffffff16565b60016000600c60009054906101000a900473ffffffffffffffffffffffffffffffffffffffff1673ffffffffffffffffffffffffffffffffffffffff1673ffffffffffffffffffffffffffffffffffffffff168152602001908152602001600020819055506120096064611ffb600a546000546123a390919063ffffffff16565b6123d690919063ffffffff16565b60016000600e60009054906101000a900473ffffffffffffffffffffffffffffffffffffffff1673ffffffffffffffffffffffffffffffffffffffff1673ffffffffffffffffffffffffffffffffffffffff16815260200190815260200160002081905550565b600660009054906101000a900460ff1615151561208c57600080fd5b600460009054906101000a900473ffffffffffffffffffffffffffffffffffffffff1673ffffffffffffffffffffffffffffffffffffffff163373ffffffffffffffffffffffffffffffffffffffff161415156120e857600080fd5b80600e60006101000a81548173ffffffffffffffffffffffffffffffffffffffff021916908373ffffffffffffffffffffffffffffffffffffffff16021790555050565b600c60009054906101000a900473ffffffffffffffffffffffffffffffffffffffff1681565b600660009054906101000a900460ff1615151561216e57600080fd5b600460009054906101000a900473ffffffffffffffffffffffffffffffffffffffff1673ffffffffffffffffffffffffffffffffffffffff163373ffffffffffffffffffffffffffffffffffffffff161415156121ca57600080fd5b80600b60006101000a81548173ffffffffffffffffffffffffffffffffffffffff021916908373ffffffffffffffffffffffffffffffffffffffff16021790555050565b600360009054906101000a900473ffffffffffffffffffffffffffffffffffffffff1673ffffffffffffffffffffffffffffffffffffffff163373ffffffffffffffffffffffffffffffffffffffff1614151561226a57600080fd5b600073ffffffffffffffffffffffffffffffffffffffff168173ffffffffffffffffffffffffffffffffffffffff16141515156122a657600080fd5b80600360006101000a81548173ffffffffffffffffffffffffffffffffffffffff021916908373ffffffffffffffffffffffffffffffffffffffff16021790555050565b600660009054906101000a900460ff1615151561230657600080fd5b600460009054906101000a900473ffffffffffffffffffffffffffffffffffffffff1673ffffffffffffffffffffffffffffffffffffffff163373ffffffffffffffffffffffffffffffffffffffff1614151561236257600080fd5b8060008190555050565b600080828401905083811015151561238057fe5b8091505092915050565b600082821115151561239857fe5b818303905092915050565b600080828402905060008414806123c457508284828115156123c157fe5b04145b15156123cc57fe5b8091505092915050565b60008082848115156123e457fe5b04905080915050929150505600a165627a7a72305820a55cc2a2dd6a68b843cfc10018b592f6b366c57daeff8723d7947a94fb515a1f002960806040526000600660006101000a81548160ff02191690831515021790555060006009556000600b556000600c60006101000a81548160ff0219169083151502179055506000600c60016101000a81548160ff0219169083151502179055506000600c60026101000a81548160ff021916908315150217905550336000806101000a81548173ffffffffffffffffffffffffffffffffffffffff021916908373ffffffffffffffffffffffffffffffffffffffff16021790555033600160006101000a81548173ffffffffffffffffffffffffffffffffffffffff021916908373ffffffffffffffffffffffffffffffffffffffff1602179055506117f68061010a6000396000f300608060405260043610610154576000357c0100000000000000000000000000000000000000000000000000000000900463ffffffff1680630f15f4c01461015f578063186601ca1461017657806325ba2d2e146101a55780633197cbb6146101d057806335c77e6f146101fb57806338a9a6f81461025257806343d726d6146102e257806349fcfce7146102f9578063544736e61461032857806358c23bf014610357578063597e1fb5146104285780635b25ed6a14610457578063623eff551461048257806364913477146104ad5780637008ad0d146104f057806378e979251461053157806384bcefd41461055c5780638da5cb5b146105875780638e32217a146105de5780639075becf1461061f578063a4fd6f5614610676578063b9890a74146106a5578063c10e7dfe1461070e578063ec8ac4d81461073d578063f2fde38b14610773578063fc0c546a146107b6575b61015d3361080d565b005b34801561016b57600080fd5b50610174610a1e565b005b34801561018257600080fd5b5061018b610b26565b604051808215151515815260200191505060405180910390f35b3480156101b157600080fd5b506101ba610b39565b6040518082815260200191505060405180910390f35b3480156101dc57600080fd5b506101e5610b3f565b6040518082815260200191505060405180910390f35b34801561020757600080fd5b50610210610b45565b604051808273ffffffffffffffffffffffffffffffffffffffff1673ffffffffffffffffffffffffffffffffffffffff16815260200191505060405180910390f35b34801561025e57600080fd5b50610267610b6b565b6040518080602001828103825283818151815260200191508051906020019080838360005b838110156102a757808201518184015260208101905061028c565b50505050905090810190601f1680156102d45780820380516001836020036101000a031916815260200191505b509250505060405180910390f35b3480156102ee57600080fd5b506102f7610c09565b005b34801561030557600080fd5b5061030e610cf4565b604051808215151515815260200191505060405180910390f35b34801561033457600080fd5b5061033d610d07565b604051808215151515815260200191505060405180910390f35b34801561036357600080fd5b50610426600480360381019080803590602001908201803590602001908080601f016020809104026020016040519081016040528093929190818152602001838380828437820191505050505050919291929080359060200190929190803590602001909291908035906020019092919080359060200190929190803573ffffffffffffffffffffffffffffffffffffffff169060200190929190803573ffffffffffffffffffffffffffffffffffffffff169060200190929190505050610d13565b005b34801561043457600080fd5b5061043d610f61565b604051808215151515815260200191505060405180910390f35b34801561046357600080fd5b5061046c610f74565b6040518082815260200191505060405180910390f35b34801561048e57600080fd5b50610497610f7a565b6040518082815260200191505060405180910390f35b3480156104b957600080fd5b506104ee600480360381019080803573ffffffffffffffffffffffffffffffffffffffff169060200190929190505050610f80565b005b3480156104fc57600080fd5b5061051b60048036038101908080359060200190929190505050611077565b6040518082815260200191505060405180910390f35b34801561053d57600080fd5b5061054661108f565b6040518082815260200191505060405180910390f35b34801561056857600080fd5b50610571611095565b6040518082815260200191505060405180910390f35b34801561059357600080fd5b5061059c61109b565b604051808273ffffffffffffffffffffffffffffffffffffffff1673ffffffffffffffffffffffffffffffffffffffff16815260200191505060405180910390f35b3480156105ea57600080fd5b50610609600480360381019080803590602001909291905050506110c0565b6040518082815260200191505060405180910390f35b34801561062b57600080fd5b5061063461127b565b604051808273ffffffffffffffffffffffffffffffffffffffff1673ffffffffffffffffffffffffffffffffffffffff16815260200191505060405180910390f35b34801561068257600080fd5b5061068b6112a1565b604051808215151515815260200191505060405180910390f35b3480156106b157600080fd5b5061070c600480360381019080803590602001908201803590602001908080601f01602080910402602001604051908101604052809392919081815260200183838082843782019150505050505091929192905050506112ad565b005b34801561071a57600080fd5b506107236114ab565b604051808215151515815260200191505060405180910390f35b610771600480360381019080803573ffffffffffffffffffffffffffffffffffffffff16906020019092919050505061080d565b005b34801561077f57600080fd5b506107b4600480360381019080803573ffffffffffffffffffffffffffffffffffffffff1690602001909291905050506114be565b005b3480156107c257600080fd5b506107cb611598565b604051808273ffffffffffffffffffffffffffffffffffffffff1673ffffffffffffffffffffffffffffffffffffffff16815260200191505060405180910390f35b600080600073ffffffffffffffffffffffffffffffffffffffff168373ffffffffffffffffffffffffffffffffffffffff161415151561084c57600080fd5b6108546115be565b151561085f57600080fd5b34915061086b826110c0565b90506007546108858260095461163590919063ffffffff16565b10151561089157600080fd5b6108a68160095461163590919063ffffffff16565b6009819055506108c182600b5461163590919063ffffffff16565b600b81905550600260009054906101000a900473ffffffffffffffffffffffffffffffffffffffff1673ffffffffffffffffffffffffffffffffffffffff16638de9322284836040518363ffffffff167c0100000000000000000000000000000000000000000000000000000000028152600401808373ffffffffffffffffffffffffffffffffffffffff1673ffffffffffffffffffffffffffffffffffffffff16815260200182815260200192505050600060405180830381600087803b15801561098c57600080fd5b505af11580156109a0573d6000803e3d6000fd5b505050508273ffffffffffffffffffffffffffffffffffffffff163373ffffffffffffffffffffffffffffffffffffffff167f623b3804fa71d67900d064613da8f94b9617215ee90799290593e1745087ad188484604051808381526020018281526020019250505060405180910390a3610a19611653565b505050565b600160009054906101000a900473ffffffffffffffffffffffffffffffffffffffff1673ffffffffffffffffffffffffffffffffffffffff163373ffffffffffffffffffffffffffffffffffffffff161480610ac657506000809054906101000a900473ffffffffffffffffffffffffffffffffffffffff1673ffffffffffffffffffffffffffffffffffffffff163373ffffffffffffffffffffffffffffffffffffffff16145b1515610ad157600080fd5b600c60009054906101000a900460ff16151515610aed57600080fd5b600c60019054906101000a900460ff16151515610b0957600080fd5b6001600c60006101000a81548160ff021916908315150217905550565b600c60009054906101000a900460ff1681565b60085481565b60045481565b600160009054906101000a900473ffffffffffffffffffffffffffffffffffffffff1681565b600a8054600181600116156101000203166002900480601f016020809104026020016040519081016040528092919081815260200182805460018160011615610100020316600290048015610c015780601f10610bd657610100808354040283529160200191610c01565b820191906000526020600020905b815481529060010190602001808311610be457829003601f168201915b505050505081565b600160009054906101000a900473ffffffffffffffffffffffffffffffffffffffff1673ffffffffffffffffffffffffffffffffffffffff163373ffffffffffffffffffffffffffffffffffffffff161480610cb157506000809054906101000a900473ffffffffffffffffffffffffffffffffffffffff1673ffffffffffffffffffffffffffffffffffffffff163373ffffffffffffffffffffffffffffffffffffffff16145b1515610cbc57600080fd5b6001600c60006101000a81548160ff0219169083151502179055506001600c60016101000a81548160ff021916908315150217905550565b600c60029054906101000a900460ff1681565b60006003544211905090565b600160009054906101000a900473ffffffffffffffffffffffffffffffffffffffff1673ffffffffffffffffffffffffffffffffffffffff163373ffffffffffffffffffffffffffffffffffffffff16141515610d6f57600080fd5b600c60029054906101000a900460ff16151515610d8b57600080fd5b858510151515610d9a57600080fd5b600084111515610da957600080fd5b600073ffffffffffffffffffffffffffffffffffffffff168173ffffffffffffffffffffffffffffffffffffffff1614151515610de557600080fd5b6001600c60026101000a81548160ff02191690831515021790555081600260006101000a81548173ffffffffffffffffffffffffffffffffffffffff021916908373ffffffffffffffffffffffffffffffffffffffff16021790555085600381905550846004819055508360078190555080600660016101000a81548173ffffffffffffffffffffffffffffffffffffffff021916908373ffffffffffffffffffffffffffffffffffffffff1602179055508260088190555086600a9080519060200190610eb4929190611725565b50610f58600a8054600181600116156101000203166002900480601f016020809104026020016040519081016040528092919081815260200182805460018160011615610100020316600290048015610f4e5780601f10610f2357610100808354040283529160200191610f4e565b820191906000526020600020905b815481529060010190602001808311610f3157829003601f168201915b50505050506112ad565b50505050505050565b600c60019054906101000a900460ff1681565b60075481565b60095481565b600160009054906101000a900473ffffffffffffffffffffffffffffffffffffffff1673ffffffffffffffffffffffffffffffffffffffff163373ffffffffffffffffffffffffffffffffffffffff16148061102857506000809054906101000a900473ffffffffffffffffffffffffffffffffffffffff1673ffffffffffffffffffffffffffffffffffffffff163373ffffffffffffffffffffffffffffffffffffffff16145b151561103357600080fd5b80600660016101000a81548173ffffffffffffffffffffffffffffffffffffffff021916908373ffffffffffffffffffffffffffffffffffffffff16021790555050565b60056020528060005260406000206000915090505481565b60035481565b600b5481565b6000809054906101000a900473ffffffffffffffffffffffffffffffffffffffff1681565b60008060008061110360016110f5620151806110e7600354426116be90919063ffffffff16565b6116d790919063ffffffff16565b61163590919063ffffffff16565b9250600091508290505b60008112151561115c5760006005600083815260200190815260200160002054111561114e576005600082815260200190815260200160002054915061115c565b80806001900391505061110d565b611271670de0b6b3a7640000611263606461125560648701611247600260009054906101000a900473ffffffffffffffffffffffffffffffffffffffff1673ffffffffffffffffffffffffffffffffffffffff16631b9cbdfb6040518163ffffffff167c0100000000000000000000000000000000000000000000000000000000028152600401602060405180830381600087803b1580156111fd57600080fd5b505af1158015611211573d6000803e3d6000fd5b505050506040513d602081101561122757600080fd5b81019080805190602001909291905050508c6116d790919063ffffffff16565b6116f290919063ffffffff16565b6116d790919063ffffffff16565b6116f290919063ffffffff16565b9350505050919050565b600660019054906101000a900473ffffffffffffffffffffffffffffffffffffffff1681565b60006004544211905090565b6000600660009054906101000a900460ff161515156112cb57600080fd5b6001600660006101000a81548160ff021916908315150217905550816040518082805190602001908083835b60208310151561131c57805182526020820191506020810190506020830392506112f7565b6001836020036101000a0380198251168184511680821785525050505050509050019150506040518091039020905060405180807f7072697661746573616c65000000000000000000000000000000000000000000815250600b019050604051809103902060001916816000191614156113af5761013960056000808152602001908152602001600020819055506114a7565b60405180807f70726573616c65000000000000000000000000000000000000000000000000008152506007019050604051809103902060001916816000191614156114125760d260056000808152602001908152602001600020819055506114a6565b60405180807f67656e6572616c73616c65000000000000000000000000000000000000000000815250600b019050604051809103902060001916816000191614156114a557603c60056000808152602001908152602001600020819055506026600560006007815260200190815260200160002081905550600a60056000600e8152602001908152602001600020819055505b5b5b5050565b600660009054906101000a900460ff1681565b6000809054906101000a900473ffffffffffffffffffffffffffffffffffffffff1673ffffffffffffffffffffffffffffffffffffffff163373ffffffffffffffffffffffffffffffffffffffff1614151561151957600080fd5b600073ffffffffffffffffffffffffffffffffffffffff168173ffffffffffffffffffffffffffffffffffffffff161415151561155557600080fd5b806000806101000a81548173ffffffffffffffffffffffffffffffffffffffff021916908373ffffffffffffffffffffffffffffffffffffffff16021790555050565b600260009054906101000a900473ffffffffffffffffffffffffffffffffffffffff1681565b60008060008060035442101580156115d857506004544211155b92506000341415915060085434101590508280156115f35750815b80156115fc5750805b80156116145750600c60009054906101000a900460ff165b801561162d5750600c60019054906101000a900460ff16155b935050505090565b600080828401905083811015151561164957fe5b8091505092915050565b600660019054906101000a900473ffffffffffffffffffffffffffffffffffffffff1673ffffffffffffffffffffffffffffffffffffffff166108fc349081150290604051600060405180830381858888f193505050501580156116bb573d6000803e3d6000fd5b50565b60008282111515156116cc57fe5b818303905092915050565b60008082848115156116e557fe5b0490508091505092915050565b60008082840290506000841480611713575082848281151561171057fe5b04145b151561171b57fe5b8091505092915050565b828054600181600116156101000203166002900490600052602060002090601f016020900481019282601f1061176657805160ff1916838001178555611794565b82800160010185558215611794579182015b82811115611793578251825591602001919060010190611778565b5b5090506117a191906117a5565b5090565b6117c791905b808211156117c35760008160009055506001016117ab565b5090565b905600a165627a7a723058203e310974ba75b1d00d1b0516d22ea96e58898fbfe46091b8f1abd58adbe2f9530029a165627a7a7230582089d295e96b86cbe5dd7c46a1dbb8e0846a8d90b5b9f43ed504d2e0257715540b0029",
  "source": "pragma solidity ^0.4.21;\r\n\r\ncontract ERC20Basic {\r\n    uint256 public totalSupply;\r\n    function balanceOf(address who) public constant returns (uint256);\r\n    function transfer(address to, uint256 value) public returns (bool);\r\n    event Transfer(address indexed from, address indexed to, uint256 value);\r\n}\r\n\r\ncontract ERC20 is ERC20Basic {\r\n    function allowance(address owner, address spender) public constant returns (uint256);\r\n    function transferFrom(address from, address to, uint256 value) public returns (bool);\r\n    function approve(address spender, uint256 value) public returns (bool);\r\n    event Approval(address indexed owner, address indexed spender, uint256 value);\r\n}\r\n\r\nlibrary SafeMath {\r\n\r\n    function mul(uint256 a, uint256 b) internal pure returns (uint256) {\r\n        uint256 c = a * b;\r\n        assert(a == 0 || c / a == b);\r\n        return c;\r\n    }\r\n\r\n    function div(uint256 a, uint256 b) internal pure returns (uint256) {\r\n        uint256 c = a / b;\r\n        return c;\r\n    }\r\n\r\n    function sub(uint256 a, uint256 b) internal pure returns (uint256) {\r\n        assert(b <= a);\r\n        return a - b;\r\n    }\r\n\r\n    function add(uint256 a, uint256 b) internal pure returns (uint256) {\r\n        uint256 c = a + b;\r\n        assert(c >= a);\r\n        return c;\r\n    }\r\n\r\n}\r\n\r\ncontract BasicToken is ERC20Basic {\r\n\r\n    using SafeMath for uint256;\r\n\r\n    mapping(address => uint256) balances;\r\n\r\n    /**\r\n    * @dev transfer token for a specified address\r\n    * @param _to The address to transfer to.\r\n    * @param _value The amount to be transferred.\r\n    */\r\n    function transfer(address _to, uint256 _value) public returns (bool) {\r\n        balances[msg.sender] = balances[msg.sender].sub(_value);\r\n        balances[_to] = balances[_to].add(_value);\r\n        emit Transfer(msg.sender, _to, _value);\r\n        return true;\r\n    }\r\n\r\n    /**\r\n    * @dev Gets the balance of the specified address.\r\n    * @param _owner The address to query the the balance of.\r\n    * @return An uint256 representing the amount owned by the passed address.\r\n    */\r\n    function balanceOf(address _owner) public constant returns (uint256 balance) {\r\n        return balances[_owner];\r\n    }\r\n\r\n}\r\n\r\n/**\r\n * @title Standard ERC20 token\r\n *\r\n * @dev Implementation of the basic standard token.\r\n * @dev https://github.com/ethereum/EIPs/issues/20\r\n * @dev Based on code by FirstBlood: https://github.com/Firstbloodio/token/blob/master/smart_contract/FirstBloodToken.sol\r\n */\r\ncontract StandardToken is ERC20, BasicToken {\r\n\r\n    mapping (address => mapping (address => uint256)) allowed;\r\n\r\n    /**\r\n     * @dev Transfer tokens from one address to another\r\n     * @param _from address The address which you want to send tokens from\r\n     * @param _to address The address which you want to transfer to\r\n     * @param _value uint256 the amout of tokens to be transfered\r\n     */\r\n    function transferFrom(address _from, address _to, uint256 _value) public returns (bool) {\r\n        uint256 _allowance = allowed[_from][msg.sender];\r\n\r\n        // Check is not needed because sub(_allowance, _value) will already throw if this condition is not met\r\n        // require (_value <= _allowance);\r\n\r\n        balances[_to] = balances[_to].add(_value);\r\n        balances[_from] = balances[_from].sub(_value);\r\n        allowed[_from][msg.sender] = _allowance.sub(_value);\r\n        emit Transfer(_from, _to, _value);\r\n        return true;\r\n    }\r\n\r\n    /**\r\n     * @dev Aprove the passed address to spend the specified amount of tokens on behalf of msg.sender.\r\n     * @param _spender The address which will spend the funds.\r\n     * @param _value The amount of tokens to be spent.\r\n     */\r\n    function approve(address _spender, uint256 _value) public returns (bool) {\r\n\r\n        // To change the approve amount you first have to reduce the addresses`\r\n        //  allowance to zero by calling `approve(_spender, 0)` if it is not\r\n        //  already 0 to mitigate the race condition described here:\r\n        //  https://github.com/ethereum/EIPs/issues/20#issuecomment-263524729\r\n        require((_value == 0) || (allowed[msg.sender][_spender] == 0));\r\n\r\n        allowed[msg.sender][_spender] = _value;\r\n        emit Approval(msg.sender, _spender, _value);\r\n        return true;\r\n    }\r\n\r\n    /**\r\n     * @dev Function to check the amount of tokens that an owner allowed to a spender.\r\n     * @param _owner address The address which owns the funds.\r\n     * @param _spender address The address which will spend the funds.\r\n     * @return A uint256 specifing the amount of tokens still available for the spender.\r\n     */\r\n    function allowance(address _owner, address _spender) public constant returns (uint256 remaining) {\r\n        return allowed[_owner][_spender];\r\n    }\r\n\r\n}\r\n\r\n/**\r\n * @title Ownable\r\n * @dev The Ownable contract has an owner address, and provides basic authorization control\r\n * functions, this simplifies the implementation of \"user permissions\".\r\n */\r\ncontract Ownable {\r\n\r\n    address public owner;\r\n\r\n    /**\r\n     * @dev The Ownable constructor sets the original `owner` of the contract to the sender\r\n     * account.\r\n     */\r\n    function Ownable() public {\r\n        owner = msg.sender;\r\n    }\r\n\r\n    /**\r\n     * @dev Throws if called by any account other than the owner.\r\n     */\r\n    modifier onlyOwner() {\r\n        require(msg.sender == owner);\r\n        _;\r\n    }\r\n\r\n    /**\r\n     * @dev Allows the current owner to transfer control of the contract to a newOwner.\r\n     * @param newOwner The address to transfer ownership to.\r\n     */\r\n    function transferOwnership(address newOwner) public onlyOwner {\r\n        require(newOwner != address(0));\r\n        owner = newOwner;\r\n    }\r\n\r\n    event OwnerLog(address a);\r\n\r\n}\r\n\r\ncontract Configurable is Ownable {\r\n\r\n    address public configurer;\r\n\r\n    function Configurable() public {\r\n        configurer = msg.sender;\r\n    }\r\n\r\n    modifier onlyConfigurerOrOwner() {\r\n        require(msg.sender == configurer || msg.sender == owner);\r\n        _;\r\n    }\r\n\r\n    modifier onlyConfigurer() {\r\n        require(msg.sender == configurer);\r\n        _;\r\n    }\r\n}\r\n\r\ncontract DLCToken is StandardToken, Configurable {\r\n\r\n    string public constant name = \"DoubleLand Coin\";\r\n    string public constant symbol = \"DC\";\r\n    uint32 public constant decimals = 18;\r\n\r\n    uint256 public priceOfToken;\r\n\r\n    bool tokenBeenInit = false;\r\n\r\n    uint public constant percentRate = 100;\r\n    uint public investorsTokensPercent;\r\n    uint public foundersTokensPercent;\r\n    uint public bountyTokensPercent;\r\n    uint public developmentAuditPromotionTokensPercent;\r\n\r\n    address public toSaleWallet;\r\n    address public bountyWallet;\r\n    address public foundersWallet;\r\n    address public developmentAuditPromotionWallet;\r\n\r\n    address public saleAgent;\r\n\r\n\r\n    function DLCToken() public {\r\n    }\r\n\r\n    modifier notInit() {\r\n        require(!tokenBeenInit);\r\n        _;\r\n    }\r\n\r\n    function setSaleAgent(address newSaleAgent) public onlyConfigurerOrOwner{\r\n        saleAgent = newSaleAgent;\r\n    }\r\n\r\n    function setPriceOfToken(uint256 newPriceOfToken) public onlyConfigurerOrOwner{\r\n        priceOfToken = newPriceOfToken;\r\n    }\r\n\r\n    function setTotalSupply(uint256 _totalSupply) public notInit onlyConfigurer{\r\n        totalSupply = _totalSupply;\r\n    }\r\n\r\n    function setFoundersTokensPercent(uint _foundersTokensPercent) public notInit onlyConfigurer{\r\n        foundersTokensPercent = _foundersTokensPercent;\r\n    }\r\n\r\n    function setBountyTokensPercent(uint _bountyTokensPercent) public notInit onlyConfigurer{\r\n        bountyTokensPercent = _bountyTokensPercent;\r\n    }\r\n\r\n    function setDevelopmentAuditPromotionTokensPercent(uint _developmentAuditPromotionTokensPercent) public notInit onlyConfigurer{\r\n        developmentAuditPromotionTokensPercent = _developmentAuditPromotionTokensPercent;\r\n    }\r\n\r\n    function setBountyWallet(address _bountyWallet) public notInit onlyConfigurer{\r\n        bountyWallet = _bountyWallet;\r\n    }\r\n\r\n    function setToSaleWallet(address _toSaleWallet) public notInit onlyConfigurer{\r\n        toSaleWallet = _toSaleWallet;\r\n    }\r\n\r\n    function setFoundersWallet(address _foundersWallet) public notInit onlyConfigurer{\r\n        foundersWallet = _foundersWallet;\r\n    }\r\n\r\n    function setDevelopmentAuditPromotionWallet(address _developmentAuditPromotionWallet) public notInit onlyConfigurer {\r\n        developmentAuditPromotionWallet = _developmentAuditPromotionWallet;\r\n    }\r\n\r\n    function init() public notInit onlyConfigurer{\r\n        require(totalSupply > 0);\r\n        require(foundersTokensPercent > 0);\r\n        require(bountyTokensPercent > 0);\r\n        require(developmentAuditPromotionTokensPercent > 0);\r\n        require(foundersWallet != address(0));\r\n        require(bountyWallet != address(0));\r\n        require(developmentAuditPromotionWallet != address(0));\r\n        tokenBeenInit = true;\r\n\r\n        investorsTokensPercent = percentRate - (foundersTokensPercent + bountyTokensPercent + developmentAuditPromotionTokensPercent);\r\n\r\n        balances[toSaleWallet] = totalSupply.mul(investorsTokensPercent).div(percentRate);\r\n        balances[foundersWallet] = totalSupply.mul(foundersTokensPercent).div(percentRate);\r\n        balances[bountyWallet] = totalSupply.mul(bountyTokensPercent).div(percentRate);\r\n        balances[developmentAuditPromotionWallet] = totalSupply.mul(developmentAuditPromotionTokensPercent).div(percentRate);\r\n    }\r\n\r\n    function getRestTokenBalance() public constant returns (uint256) {\r\n        return balances[toSaleWallet];\r\n    }\r\n\r\n    function purchase(address beneficiary, uint256 qty) public {\r\n        require(msg.sender == saleAgent || msg.sender == owner);\r\n        require(beneficiary != address(0));\r\n        require(qty > 0);\r\n        require((getRestTokenBalance().sub(qty)) > 0);\r\n\r\n        balances[beneficiary] = balances[beneficiary].add(qty);\r\n        balances[toSaleWallet] = balances[toSaleWallet].sub(qty);\r\n\r\n        emit Transfer(toSaleWallet, beneficiary, qty);\r\n    }\r\n\r\n    function () public payable {\r\n        revert();\r\n    }\r\n}\r\n\r\ncontract Bonuses {\r\n    using SafeMath for uint256;\r\n\r\n    DLCToken public token;\r\n\r\n    uint256 public startTime;\r\n    uint256 public endTime;\r\n\r\n    mapping(uint => uint256) public bonusOfDay;\r\n\r\n    bool public bonusInited = false;\r\n\r\n    function initBonuses (string _preset) public {\r\n        require(!bonusInited);\r\n        bonusInited = true;\r\n        bytes32 preset = keccak256(_preset);\r\n\r\n        if(preset == keccak256('privatesale')){\r\n            bonusOfDay[0] = 313;\r\n        } else\r\n        if(preset == keccak256('presale')){\r\n            bonusOfDay[0] = 210;\r\n        } else\r\n        if(preset == keccak256('generalsale')){\r\n            bonusOfDay[0] = 60;\r\n            bonusOfDay[7] = 38;\r\n            bonusOfDay[14] = 10;\r\n        }\r\n    }\r\n\r\n    function calculateTokensQtyByEther(uint256 amount) public constant returns(uint256) {\r\n        int dayOfStart = int(now.sub(startTime).div(86400).add(1));\r\n        uint currentBonus = 0;\r\n        int i;\r\n\r\n        for (i = dayOfStart; i >= 0; i--) {\r\n            if (bonusOfDay[uint(i)] > 0) {\r\n                currentBonus = bonusOfDay[uint(i)];\r\n                break;\r\n            }\r\n        }\r\n\r\n        return amount.div(token.priceOfToken()).mul(currentBonus + 100).div(100).mul(1 ether);\r\n    }\r\n}\r\n\r\ncontract Sale is Configurable, Bonuses{\r\n    using SafeMath for uint256;\r\n\r\n    address public multisigWallet;\r\n    uint256 public tokensLimit;\r\n    uint256 public minimalPrice;\r\n    uint256 public tokensTransferred = 0;\r\n\r\n    string public bonusPreset;\r\n\r\n    uint256 public collected = 0;\r\n\r\n    bool public activated = false;\r\n    bool public closed = false;\r\n    bool public saleInited = false;\r\n\r\n\r\n    event TokenPurchase(address indexed purchaser, address indexed beneficiary, uint256 value, uint256 amount);\r\n\r\n    function init(\r\n        string _bonusPreset,\r\n        uint256 _startTime,\r\n        uint256 _endTime,\r\n        uint256 _tokensLimit,\r\n        uint256 _minimalPrice,\r\n        DLCToken _token,\r\n        address _multisigWallet\r\n    ) public onlyConfigurer {\r\n        require(!saleInited);\r\n        require(_endTime >= _startTime);\r\n        require(_tokensLimit > 0);\r\n        require(_multisigWallet != address(0));\r\n\r\n        saleInited = true;\r\n\r\n        token = _token;\r\n        startTime = _startTime;\r\n        endTime = _endTime;\r\n        tokensLimit = _tokensLimit;\r\n        multisigWallet = _multisigWallet;\r\n        minimalPrice = _minimalPrice;\r\n        bonusPreset = _bonusPreset;\r\n\r\n        initBonuses(bonusPreset);\r\n    }\r\n\r\n    function activate() public onlyConfigurerOrOwner {\r\n        require(!activated);\r\n        require(!closed);\r\n        activated = true;\r\n    }\r\n\r\n    function close() public onlyConfigurerOrOwner {\r\n        activated = true;\r\n        closed = true;\r\n    }\r\n\r\n    function setMultisigWallet(address _multisigWallet) public onlyConfigurerOrOwner {\r\n        multisigWallet = _multisigWallet;\r\n    }\r\n\r\n    function () external payable {\r\n        buyTokens(msg.sender);\r\n    }\r\n\r\n    function buyTokens(address beneficiary) public payable {\r\n        require(beneficiary != address(0));\r\n        require(validPurchase());\r\n\r\n        uint256 amount = msg.value;\r\n        uint256 tokens = calculateTokensQtyByEther({\r\n            amount: amount\r\n            });\r\n\r\n        require(tokensTransferred.add(tokens) < tokensLimit);\r\n\r\n        tokensTransferred = tokensTransferred.add(tokens);\r\n        collected = collected.add(amount);\r\n\r\n        token.purchase(beneficiary, tokens);\r\n        emit TokenPurchase(msg.sender, beneficiary, amount, tokens);\r\n\r\n        forwardFunds();\r\n    }\r\n\r\n    function forwardFunds() internal {\r\n        multisigWallet.transfer(msg.value);\r\n    }\r\n\r\n    function validPurchase() internal constant returns (bool) {\r\n        bool withinPeriod = now >= startTime && now <= endTime;\r\n        bool nonZeroPurchase = msg.value != 0;\r\n        bool minimalPriceChecked = msg.value >= minimalPrice;\r\n        return withinPeriod && nonZeroPurchase && minimalPriceChecked && activated && !closed;\r\n    }\r\n\r\n    function isStarted() public constant returns (bool) {\r\n        return now > startTime;\r\n    }\r\n\r\n    function isEnded() public constant returns (bool) {\r\n        return now > endTime;\r\n    }\r\n}\r\n\r\n\r\ncontract DoubleLandICO is Ownable {\r\n    using SafeMath for uint256;\r\n\r\n    DLCToken public token;\r\n\r\n    Sale[] public sales;\r\n\r\n    uint256 public softCap;\r\n    uint256 public hardCap;\r\n\r\n    uint public activatedSalesTotalCount = 0;\r\n    uint public maxActivatedSalesTotalCount;\r\n\r\n    address public multisigWallet;\r\n\r\n    bool public isDeployed = false;\r\n\r\n    function createSale(string _bonusPreset, uint256 _startTime, uint256 _endTime,  uint256 _tokensLimit, uint256 _minimalPrice) public onlyOwner{\r\n        require(activatedSalesTotalCount < maxActivatedSalesTotalCount);\r\n        require(getTotalCollected() < hardCap );\r\n        require(token.getRestTokenBalance() >= _tokensLimit);\r\n        require(sales.length == 0 || sales[sales.length - 1].activated());\r\n        Sale newSale = new Sale();\r\n\r\n        newSale.init({\r\n            _bonusPreset: _bonusPreset,\r\n            _startTime: _startTime,\r\n            _endTime: _endTime,\r\n            _tokensLimit: _tokensLimit,\r\n            _minimalPrice: _minimalPrice,\r\n            _token: token,\r\n            _multisigWallet: multisigWallet\r\n            });\r\n        newSale.transferOwnership(owner);\r\n\r\n        sales.push(newSale);\r\n    }\r\n\r\n    function activateLastSale() public onlyOwner {\r\n        require(activatedSalesTotalCount < maxActivatedSalesTotalCount);\r\n        require(!sales[sales.length - 1].activated());\r\n        activatedSalesTotalCount ++;\r\n        sales[sales.length - 1].activate();\r\n        token.setSaleAgent(sales[sales.length - 1]);\r\n    }\r\n\r\n    function removeLastSaleOnlyNotActivated() public onlyOwner {\r\n        require(!sales[sales.length - 1].activated());\r\n        delete sales[sales.length - 1];\r\n    }\r\n\r\n    function closeAllSales() public onlyOwner {\r\n        for (uint i = 0; i < sales.length; i++) {\r\n            sales[i].close();\r\n        }\r\n    }\r\n\r\n    function setGlobalMultisigWallet(address _multisigWallet) public onlyOwner {\r\n        multisigWallet = _multisigWallet;\r\n        for (uint i = 0; i < sales.length; i++) {\r\n            if (!sales[i].closed()) {\r\n                sales[i].setMultisigWallet(multisigWallet);\r\n            }\r\n        }\r\n    }\r\n\r\n    function getTotalCollected() public constant returns(uint256) {\r\n        uint256 _totalCollected = 0;\r\n        for (uint i = 0; i < sales.length; i++) {\r\n            _totalCollected = _totalCollected + sales[i].collected();\r\n        }\r\n        return _totalCollected;\r\n    }\r\n\r\n    function getCurrentSale() public constant returns(address) {\r\n        return token.saleAgent();\r\n    }\r\n\r\n    function deploy() public onlyOwner {\r\n        require(!isDeployed);\r\n        isDeployed = true;\r\n\r\n        softCap = 8000 ether;\r\n        hardCap = 50000 ether;\r\n        maxActivatedSalesTotalCount = 5;\r\n\r\n        setGlobalMultisigWallet(0x9264669C5071944EaF5898B13f049aA667a2f94B);\r\n\r\n        token = new DLCToken();\r\n        token.setTotalSupply(1000000000 * 1 ether);\r\n        token.setFoundersTokensPercent(15);\r\n        token.setBountyTokensPercent(1);\r\n        token.setDevelopmentAuditPromotionTokensPercent(10);\r\n        token.setPriceOfToken(0.000183 * 1 ether);\r\n        token.setToSaleWallet(0x1Ab521E26d76826cE3130Dd7E31c64870016C268);\r\n        token.setBountyWallet(0xD1Aac7097a9a79EC60940Af9c6cCcD78597534bc);\r\n        token.setFoundersWallet(0xf5EEbE2be833458367200389ad567Cc1A450CD64);\r\n        token.setDevelopmentAuditPromotionWallet(0xebb8776f710A5Df053C291Fe65228687f07faACB);\r\n        token.transferOwnership(owner);\r\n        token.init();\r\n\r\n        createSale({\r\n            _bonusPreset: 'privatesale',\r\n            _startTime: 1526331600, // 15.05.2018 00:00:00\r\n            _endTime:   1527714000, // 31.05.2018 00:00:00\r\n            _tokensLimit: 80000000 * 1 ether,\r\n            _minimalPrice: 1 ether\r\n            });\r\n        activateLastSale();\r\n\r\n        createSale({\r\n            _bonusPreset: 'presale',\r\n            _startTime: 1529010000, // 15.06.2018 00:00:00\r\n            _endTime:   1530306000, // 30.06.2018 00:00:00\r\n            _tokensLimit: 75000000 * 1 ether,\r\n            _minimalPrice: 0.03 ether\r\n            });\r\n    }\r\n}",
  "sourcePath": "/home/ubuntu/projects/NFS/projects/mythril-line-numbers/contracts/sol_0xf6da07a8ffb5683314715d8c7a1a5c952b4e74ca.sol",
  "compiler": {
    "name": "solc",
    "version": "0.4.24+commit.e67f0147.Emscripten.clang"
  },
  "schemaVersion": "3.0.2",
  "updatedAt": "2019-03-10T15:49:44.871Z",
  "devdoc": {
    "methods": {
      "transferOwnership(address)": {
        "details": "Allows the current owner to transfer control of the contract to a newOwner.\r",
        "params": {
          "newOwner": "The address to transfer ownership to.\r"
        }
      }
    }
  },
  "userdoc": {
    "methods": {}
  }
}